:100000000C9446000C9465000C9465000C946500FB
:100010000C9465000C9465000C9465000C946500CC
:100020000C9465000C9465000C9465000C946500BC
:100030000C9465000C9465000C9465000C946500AC
:100040000C9465000C9465000C9465000C9465009C
:100050000C9465000C9465000C9465000C9465008C
:100060000C9465000C9465000C9465000C9465007C
:100070000C9465000C9465000C9465000C9465006C
:100080000C9465000C9465000C94650011241FBE4F
:10009000CFEFD0E4DEBFCDBF11E0A0E0B1E0E2E001
:1000A000F2E000E00BBF02C007900D92AE30B10746
:1000B000D9F721E0AEE0B1E001C01D92A331B20753
:1000C000E1F70E94F1000C94FF000C940000CF9324
:1000D000C82F8A3051F09091C00095FFFCCFC0939B
:1000E000C60090E080E0CF9108958DE00E94670007
:1000F000F2CF809111019091120182309105A1F10E
:1001000078F40097E1F0019709F5809110018130B2
:1001100021F181E090E0909312018093110116C0CB
:100120000397A1F480911001813029F181110EC053
:1001300081E090E0909312018093110107C081E06B
:1001400090E0909312018093110118B880911101F1
:10015000909112010297B1F0089582E090E090939F
:10016000120180931101F2CF83E090E0909312018D
:1001700080931101EBCF83E090E090931201809384
:100180001101E4CF88B1811103C081E088B90895DD
:1001900088B18823A9F080910F01811111C088B125
:1001A000880F88B980910E018F5F80930E01873090
:1001B00099F691E090930F018F5F80930E0108955F
:1001C00080910F01882341F288B1869588B980918A
:1001D0000E01815080930E018111BECF10920F014C
:1001E000BBCF11B88FEF82B987B918B880B191E051
:1001F00089278170809310010E947900F7CFF894CD
:02020000FFCF2E
:0E020200000000020000000067000000000085
:00000001FF
